:10000000FDC0000016C1000014C1000012C10000B4
:1000100010C100000EC100000CC100000AC10000A8
:1000200008C1000006C1000004C1000002C10000B8
:1000300000C10000FEC00000FCC00000FAC00000CB
:10004000F8C00000F6C00000F4C00000F2C00000DC
:10005000F0C00000EEC00000ECC00000EAC00000EC
:10006000E8C00000E6C00000E4C00000E2C00000FC
:10007000E0C00000DEC00000DCC00000DAC000000C
:10008000D8C00000D6C00000D4C00000D2C000001C
:10009000D0C00000CEC00000CCC00000CAC000002C
:1000A000C8C00000C6C00000C4C00000C2C000003C
:1000B000C0C00000BEC00000BCC00000BAC000004C
:1000C000B8C00000B6C00000B4C00000B2C000005C
:1000D000B0C00000AEC00000ACC00000AAC000006C
:1000E000A8C00000A6C00000A4C00000A2C000007C
:1000F000A0C000009EC000009CC000009AC000008C
:1001000098C0000096C0000094C0000092C000009B
:1001100090C000008EC000008CC000008AC00000AB
:1001200088C0000086C0000084C0000082C00000BB
:1001300080C000007EC000007CC000007AC00000CB
:1001400078C0000076C0000074C0000072C00000DB
:1001500070C000006EC000006CC000006AC00000EB
:1001600068C0000066C0000064C0000062C00000FB
:1001700060C000005EC000005CC000005AC000000B
:1001800058C0000056C0000054C0000052C000001B
:1001900050C000004EC000004CC000004AC000002B
:1001A00048C0000046C0000044C0000042C000003B
:1001B00040C000003EC000003CC000003AC000004B
:1001C00038C0000036C0000034C0000032C000005B
:1001D00030C000002EC000002CC000002AC000006B
:1001E00028C0000026C0000024C0000022C000007B
:1001F00020C000001EC000001CC0000011241FBE53
:10020000CFEFCDBFDFE2DEBF10E2A0E0B0E2E8E476
:10021000F3E002C005900D92A030B107D9F720E2BB
:10022000A0E0B0E201C01D92A030B207E1F77DD09E
:1002300089C0E6CE88E0809381068093850684E0BD
:100240008093820683E08093A50A80E28093A30ACC
:1002500080E48093A60A80EA8093A70A88E18093CD
:10026000A40AE2EAF0E08081826080830895E0EAF7
:10027000FAE0918195FFFDCF8093A00A089588ED63
:1002800084BF93E49093520084BF88E08093500031
:10029000E1E5F0E0808183FFFDCFE2E4F0E0108251
:1002A00088ED84BF83E08093400088E08093500015
:1002B00081E080830895009739F0E9E9F3E0319710
:1002C000F1F700C00197C9F7089584E08093010613
:1002D0008093060608951F93CF93DF9382E390E007
:1002E000EADFC0E0D6E014E01D8384E690E0E3DFBF
:1002F0001E8382E390E0DFDFDF91CF911F910895AD
:100300001F93CF93DF938CE291E0D5DFC0E0D6E07E
:1003100014E01D8388E592E0CEDF1E838CE291E03D
:10032000CADFDF91CF911F910895A9DF84EF91E09B
:10033000C2DFCBDFD0DFCFDFCEDF7CDF81E497DF32
:08034000DFDFFCCFF894FFCFD2
:00000001FF
