S00F0000617478626F6F742E7372656314
S1130000FDC0000016C1000014C1000012C10000B0
S113001010C100000EC100000CC100000AC10000A4
S113002008C1000006C1000004C1000002C10000B4
S113003000C10000FEC00000FCC00000FAC00000C7
S1130040F8C00000F6C00000F4C00000F2C00000D8
S1130050F0C00000EEC00000ECC00000EAC00000E8
S1130060E8C00000E6C00000E4C00000E2C00000F8
S1130070E0C00000DEC00000DCC00000DAC0000008
S1130080D8C00000D6C00000D4C00000D2C0000018
S1130090D0C00000CEC00000CCC00000CAC0000028
S11300A0C8C00000C6C00000C4C00000C2C0000038
S11300B0C0C00000BEC00000BCC00000BAC0000048
S11300C0B8C00000B6C00000B4C00000B2C0000058
S11300D0B0C00000AEC00000ACC00000AAC0000068
S11300E0A8C00000A6C00000A4C00000A2C0000078
S11300F0A0C000009EC000009CC000009AC0000088
S113010098C0000096C0000094C0000092C0000097
S113011090C000008EC000008CC000008AC00000A7
S113012088C0000086C0000084C0000082C00000B7
S113013080C000007EC000007CC000007AC00000C7
S113014078C0000076C0000074C0000072C00000D7
S113015070C000006EC000006CC000006AC00000E7
S113016068C0000066C0000064C0000062C00000F7
S113017060C000005EC000005CC000005AC0000007
S113018058C0000056C0000054C0000052C0000017
S113019050C000004EC000004CC000004AC0000027
S11301A048C0000046C0000044C0000042C0000037
S11301B040C000003EC000003CC000003AC0000047
S11301C038C0000036C0000034C0000032C0000057
S11301D030C000002EC000002CC000002AC0000067
S11301E028C0000026C0000024C0000022C0000077
S11301F020C000001EC000001CC0000011241FBE4F
S1130200CFEFCDBFDFE2DEBF10E2A0E0B0E2E2E775
S1130210F9E002C005900D92A83AB107D9F721E29E
S1130220A8EAB0E201C01D92A331B207E1F745D2BA
S11302309EC3E6CE88E0809381068093850684E0A1
S11302408093820683E08093A50A80E28093A30AC8
S113025080E48093A60A80EA8093A70A88E18093C9
S1130260A40AE2EAF0E08081826080830895E0EAF3
S1130270FAE0918195FFFDCF8093A00A08950F9332
S11302801F93CF93DF93161617064CF48C01EC01E1
S1130290060F171F8991EBDFC017D107D9F7DF913C
S11302A0CF911F910F9108950F931F93CF93DF93D5
S11302B08C018AE3DCDFF80180818B3279F08823BA
S11302C069F0E80121960B591F4FD1DF89918B32D8
S11302D029F0882319F0C017D107B9F78BE2C7DFDB
S11302E0DF91CF911F910F9108950F931F93CF9397
S11302F0DF93FC018081882361F08F01EF01219657
S113030003571F4FB4DF8991882319F0C017D10711
S1130310C9F7DF91CF911F910F91089516164CF4F0
S1130320FC01860F911D67FD9A951192E817F90754
S1130330E1F70895CF93DF93C1E6D6E088E08883A0
S1130340A5E6B6E08C9382E696E024E0FC012083E7
S1130350E0EAF9E023E0258330E2338327E12683D2
S1130360178228E12483E2EAF0E0208122602083DE
S1130370FC01308320E1208380E488838C9380E82F
S113038088838C938CE890E0D1D180930D21909355
S11303900E21DF91CF910895E0EAF9E0918195FF74
S11303A0FDCF8093A00908950F931F93CF93DF93FC
S11303B0161617064CF48C01EC01060F171F8991D1
S11303C0EBDFC017D107D9F7DF91CF911F910F91C0
S11303D008950F931F93CF93DF93CDB7DEB7CC5817
S11303E0D109CDBFDEBF92E099838A836B839627C0
S11303F08927062F062E000C110B101611068CF4FB
S1130400A42FB52FFE0134969E01260F311D67FDE2
S11304103A952C5F3F4F9D9191938927E217F307FB
S1130420D1F7FE01E00FF11F8483B8016C5F7F4FA9
S1130430CE010196B9DFC457DF4FCDBFDEBFDF91D8
S1130440CF911F910F9108951092A82081E395E711
S1130450E0EAF9E007C0019729F481E08093A8203D
S113046080E0089521812223B4F78091A0090895A2
S1130470CF92DF92EF92FF920F931F93CF93DF936C
S1130480EC016CE84BDFE0DF9091A820992321F088
S11304908CE190E22ADF4EC08883823009F04AC0A2
S11304A08EE290E201DFD0DF9091A820992321F021
S11304B083E390E21ADF3EC08983C6DF9091A820CF
S11304C0992321F08DE390E210DF34C08A83C82E93
S11304D0880FDD081C141D04F4F4E12CF12C13E046
S11304E001C0102FB1DF9091A820992329F087E44F
S11304F090E2FBDE012F10C001E0010FFE01E10FCD
S1130500F11D17FDFA9580838FEFE81AF80AEC14B1
S1130510FD0439F701C003E097DF9091A8209923E7
S113052021F081E590E2E1DE05C0C00FD11D07FD99
S1130530DA958883DF91CF911F910F91FF90EF900F
S1130540DF90CF9008958A3014F4805D0895895C1B
S113055008958F929F92AF92BF92CF92DF92EF92C3
S1130560FF920F931F93CF93DF936C01A62EC62F98
S1130570660FDD0BCE01880F991F8C0F9D1F01960E
S1130580D5D04C011C161D0624F5EC0186010A2C5D
S1130590000CBB08CA0CDB1C0F2EFCE7EF2EF02D61
S11305A0E882F801F1908F018F2D859585958595C9
S11305B08595C9DF89838F2D8F70C5DF8A83239644
S11305C00C151D0569F7F501EE0FFF1FAE0EBF1EDA
S11305D002C0A12CB12CF401EA0DFB1D1082C40150
S11305E0DF91CF911F910F91FF90EF90DF90CF900B
S11305F0BF90AF909F908F90089580910D2190911E
S11306000E21FC0162816C5FA4DF6FCE089588ED3A
S113061084BF93E49093520084BF88E08093500099
S1130620E1E5F0E0808183FFFDCFE2E4F0E01082B9
S113063088ED84BF83E08093400088E0809350007D
S113064081E080830895009739F0E9E9F3E0319778
S1130650F1F700C00197C9F7089584E0809301067B
S11306608093060608951F93CF93DF9382E390E06F
S1130670EADFC0E0D6E014E01D8384E690E0E3DF27
S11306801E8382E390E0DFDFDF91CF911F91089515
S11306901F93CF93DF938CE291E0D5DFC0E0D6E0E7
S11306A014E01D8388E592E0CEDF1E838CE291E0A6
S11306B0CADFDF91CF911F910895A9DF84EF91E004
S11306C0C2DFCBDFD0DFCFDFCEDFB4DD33DE61E1ED
S11306D070E08DE590E2D3DD80E880936606809338
S11306E0650680910D2190910E21C2DE8FE690E285
S11306F0FCDD83DF8EE790E2F8DDCADF66E170E0BF
S113070084E890E2BCDD40E050E060E08BE061DE34
S113071080910D2190910E21ABDE8BE990E2E5DD15
S11307206CDF8EE790E2E1DDB3DFE7CF0F931F9339
S1130730CF93DF938230910510F482E090E0E09152
S11307401121F091122120E030E0A0E0B0E03097D8
S113075019F1408151810281138148175907C8F06A
S11307608417950769F4109731F012960C93129739
S113077013961C9327C0009311211093122122C0B9
S11307802115310519F04217530718F49A01BD01D8
S1130790EF01DF01F801DBCF21153105F9F0281B4A
S11307A0390B2430310580F48A819B8161157105F0
S11307B021F0FB018283938304C0809311219093E1
S11307C01221FE01329644C0FE01E20FF31F819311
S11307D0919322503109288339833AC020910F2103
S11307E030911021232B41F42091022030910320D9
S11307F020930F213093102120910020309101206B
S11308002115310541F42DB73EB740910420509194
S11308100520241B350BE0910F21F0911021E217E4
S1130820F307A0F42E1B3F0B2817390778F0AC010F
S11308304E5F5F4F2417350748F04E0F5F1F4093FC
S11308400F21509310218193919302C0E0E0F0E0D6
S1130850CF01DF91CF911F910F910895CF93DF9333
S1130860009709F481C0FC01329712821382A0918F
S11308701121B0911221109781F420813181820FCE
S1130880931F20910F21309110212817390751F51A
S1130890E0930F21F093102167C0ED0120E030E0D8
S11308A0CE17DF0740F44A815B819E014115510553
S11308B0F1F0EA01F5CFC283D38340815181840FE3
S11308C0951FC817D90759F488819981840F951FFA
S11308D00296808391838A819B81828393832115ED
S11308E0310529F4E0931121F09312213DC0E9016F
S11308F0EA83FB8349915991C40FD51FEC17FD0777
S113090061F480819181840F951F0296E9018883A7
S11309109983828193818A839B83E0E0F0E012963D
S11309208D919C911397009719F0FD01DC01F7CF8D
S11309308D919C9111979D012E5F3F4F820F931FC4
S113094020910F21309110212817390769F430972D
S113095029F4109211211092122102C012821382E2
S1130960A0930F21B0931021DF91CF910895F894B3
S1050970FFCFB3
S11309720000132120004572726F723A205A6120DE
S1130982646C7567612072616D6B610054696D6599
S11309926F75745374617274436861720A003078BB
S11309A230320054696D656F7574430A0054696D81
S11309B2656F75744C0A0054696D656F7574440AE9
S11309C20054696D656F75744352430A005365742C
S11309D220636F6D6D616E64206D6F64650A004FF4
S11309E264706F776965647A20434D3A20003A4512
S11309F24E440A0041736B20666F722073657269FC
S1130A02616C206E756D6265720A004F64706F7757
S10B0A126965647A3A200000D2
S9030000FC
