:100000000C940C020C9429020C9429020C942902E1
:100010000C9429020C9429020C9429020C942902B4
:100020000C9429020C9429020C9429020C942902A4
:100030000C9429020C9429020C9429020C94290294
:100040000C9435160C9429020C9429020C94290264
:100050000C9490170C9429020C94F6170C94290216
:100060000C9429020C94CF0F0C9437100C947C1034
:100070000C9429020C9429020C9429020C94290254
:100080000C9429020C9429020C9429020C94290244
:100090000C9429020C9429020C9429020C94290234
:1000A0000C9429020C9429020C9429020C94290224
:1000B0000C9429020C9429020C9429020C94290214
:1000C0000C9429020C9429020C9429020C94290204
:1000D0000C9429020C9429020C9429020C942902F4
:1000E0000C9429020C9429020C9476130C94DE13C0
:1000F0000C9424140C9429020C9429020C942902C7
:100100000C9429020C9429020C9429020C942902C3
:100110000C9429020C9429020C9429020C942902B3
:100120000C9429020C9429020C9429020C942902A3
:100130000C9429020C9429020C9429020C94290293
:100140000C9429020C9429020C9429020C94290283
:100150000C9429020C9429020C9429020C94290273
:100160000C940C110C9490110C94DA110C9429023B
:100170000C9429020C9429020C9429020C94290253
:100180000C9429020C9429020C9429020C94290243
:100190000C9429020C9429020C9429020C94290233
:1001A0000C9429020C9429020C9429020C94290223
:1001B0000C9429020C9429020C9429020C94290213
:1001C0000C9429020C9429020C9429020C94290203
:1001D0000C9429020C9429020C9429020C942902F3
:1001E0000C9429020C9429020C9429020C942902E3
:1001F0000C9429020C9429020C9429024261746522
:10020000726961203A2025642C2530326420560A18
:100210000077796C61637A6F6E61206C61646F77CF
:1002200061726B610A007A616C61637A6F6E612042
:100230006C61646F7761726B610A006D795F6164F4
:1002400064726573732025750A0070726163615F63
:100250006175746F6E6F6D69637A6E612025780ABF
:100260000072657365742072656A65737472617477
:100270006F72610A0073746F70207A617069730A1B
:10028000007374617274207A617069730A00737408
:1002900061727420706F20637A617369650A006E01
:1002A000696520736B6F6E637A6F6E79207A617007
:1002B00069730A0070726163615F6175746F6E6F5C
:1002C0006D69637A6E612025780A00696E69745FD2
:1002D000416C676F0A00496E69745F4144430A00CC
:1002E00044617461666C61736820696E697420662C
:1002F00061696C0A00696E697444617461466C617D
:1003000073680A00496E69745F737069630A0069F3
:100310006E69745F4932430A00696E6974525330E2
:100320005F440A00696E69745253305F430A006982
:100330006E697454696D6572436F756E7465720A87
:1003400000696E697454696D65720A00696E69743A
:100350005253305F450A005A6C79207472796220DA
:1003600025640A00737461727420726164696F207D
:100370006B616E616C2025640A00496E69742052BD
:100380006164696F200A005A6C7920747279622066
:1003900025640A006F766572666C6F770A004E49B5
:1003A000455A4E414E592052455345540A00534F29
:1003B0004654574152452052455345540A0044453E
:1003C00042554720414E442050524F4752414D2004
:1003D00052455345540A005741544348444F47201F
:1003E00052455345540A0042524F574E204F5554E0
:1003F0002052455345540A0045585445524E414CED
:100400002052455345540A00504F574552204F4EF5
:100410002052455345540A0011241FBECFEFCDBFD3
:10042000DFE2DEBF10E2A5E0B0E2E8E3FCE302C0F9
:1004300005900D92A234B107D9F72AE2A2E4B0E206
:1004400001C01D92A736B207E1F70E949A070C94EB
:100450001A1E0C940000CF93DF93EC018881811168
:100460000EC080914220882351F02CEC3AEA42E001
:1004700050E065E070E28EEF93E00E94980A888178
:10048000809342208A8190E0982F88272981820FCB
:10049000911D8093052090930620DF91CF910895C0
:1004A00085E090E2089542E050E065E070E28EEF72
:1004B00093E00C94780ACF92DF92EF92FF928091B2
:1004C00071008D7F8093710080E1809301028093A1
:1004D000020284E08093040281E08093200288E19C
:1004E0008093210280912002806880932002809175
:1004F0000002816080930002809123028823E1F34F
:10050000209110023091110240E050E080910520CE
:1005100090910620AA2797FDA095BA2F281B390B8A
:100520004A0B5B0BAEE6B3E20E942B1B2FEF37E0CA
:1005300040E050E00E94DB1ACA01B9012AE030E035
:1005400040E050E00E94DB1A69017A01809171005D
:10055000826080937100809142208823B9F0C901A4
:1005600064E670E00E94C71A9F938F937F936F9306
:100570008CEF91E09F938F931F9281E08F930E9465
:100580004E0B8DB79EB708968DBF9EBFC601FF90DC
:10059000EF90DF90CF90089584E0E0E0F6E087836D
:1005A000089540E254E060E070E0409346205093AC
:1005B00047206093482070934920853561F410925C
:1005C00056242CEC3AEA41E050E066E574E280EA19
:1005D00090E00E94980A2CEC3AEA44E050E066E48D
:1005E00070E280EC90E00E94980A81E692E09F938E
:1005F0008F931F9281E08F930E944E0B0F900F906C
:100600000F900F9008950F931F93CF93C82F809151
:100610005724CC2309F451C08111A0C08CEC92E086
:100620000E94971540E06AEF70E08CEC92E00E9427
:100630007015409156248EE0489F90011124F901D5
:10064000E65BFF4D8091462090914720A091482085
:10065000B091492080839183A283B3838FEF9FEF72
:10066000DC0184839583A683B7838091B224909123
:10067000B32484879587D901AE5ABF4D0091A82431
:100680001091A9242091AA243091AB240D931D939D
:100690002D933C9313978EE0489FB0011124882737
:1006A00077FD8095982F0EE010E020E030E0AF015C
:1006B0000E94B40981E892E046C0882309F44EC044
:1006C0008CEC92E00E94971540E068EE73E08CECB1
:1006D00092E00E94701520915624EEE02E9FA0011A
:1006E0001124465B5F4D8091462090914720A09158
:1006F0004820B0914920FA0184839583A683B7836B
:10070000FEE02F9FB0011124882777FD8095982F58
:100710000EE010E020E030E00E94B4098091562401
:100720008A3410F48F5F01C080E0809356242CEC53
:100730003AEA41E050E066E574E280EA90E00E9427
:10074000980A85E792E09F938F931F9281E08F93A1
:100750000E944E0B0F900F900F900F90C093572454
:10076000CF911F910F9108958EE892E09F938F9300
:100770001F9281E08F930E944E0B80E4E0E6F6E04A
:1007800086830F900F900F900F9081E00C940303DD
:100790008CEC92E00E94971580915724882319F0E1
:1007A0006AEF70E002C068EE73E040E08CEC92E02B
:1007B0000C9470158AE490E208950F931F9380E2E1
:1007C00094E0A0E0B0E08093462090934720A0936F
:1007D0004820B0934920109256242CEC3AEA41E08C
:1007E00050E066E574E280EA90E00E94980A2CEC02
:1007F0003AEA44E050E066E470E280EC90E00E9467
:10080000980A4CE054E06FEF70E08AE490E20E94B6
:100810003E1B0CE014E020E030E04AE450E260E0EF
:1008200070E0CB010E94B4091F910F91089588E5F3
:1008300094E208958091A3240895CF93DF93EC016F
:1008400088E4FE01A8E5B4E201900D928A95E1F7F3
:100850002CEC3AEA48E450E068E574E280E090E08D
:100860000E94980AC85BDF4F88818093A3242CECF8
:100870003AEA41E050E063EA74E28FE590E0DF910C
:10088000CF910C94980A8093A1242CEC3AEA41E091
:1008900050E061EA74E280E890E00E94980A80915A
:1008A000A1241F928F938AE492E09F938F931F92CB
:1008B00081E08F930E944E0B0F900F900F900F903E
:1008C0000F900F9008958093A224882379F084EBF1
:1008D00093E00E94971580E00E9403038CEC92E065
:1008E0000E94971540E062E370E013C080E18093BE
:1008F00046068FEF99E50197F1F700C0000080E10F
:10090000809345068CEC92E00E94971540E068EEDB
:1009100073E08CEC92E00C947015CF93DF9381E63A
:1009200090E00E94550AC82FD0E0DC2FCC27C0935E
:100930000820D093092080E690E00E94550A9E018D
:10094000280F311DC90120930820309309209F935F
:100950002F938BE392E09F938F931F9281E08F936D
:100960000E944E0B0F900F900F900F900F900F90D2
:10097000DF91CF9108950F931F9348E450E068E50D
:1009800074E280E090E00E94780A8FE590E00E9497
:10099000550A8093A32480E890E00E94550A809332
:1009A000A1240E948D048091A1241F928F9384EB37
:1009B00092E09F938F931F9281E08F930E944E0B42
:1009C0000F900F900F900F900F900F908091A12497
:1009D0008C3C39F441E068E873E184EB93E00E94D9
:1009E000701544E050E066E470E280EC90E00E9414
:1009F000780A80EA90E00E94550A8093562440913C
:100A00004620509147206091482070914920493FED
:100A10005F4F6144710510F48B3418F085E50E9436
:100A2000D1020CE014E020E030E04AE450E260E063
:100A300070E0CB010E942409209156248EE0289F6B
:100A4000F0011124E65BFF4D80819181A281B38189
:100A50008F3F9F4FAF4FBF4F09F444C084819581B2
:100A6000A681B7818F3F9F4FAF4FBF4FD9F5809180
:100A7000462090914720A0914820B091492084833E
:100A80009583A683B7838EE0289FB0011124882721
:100A900077FD8095982F0CE010E020E030E0AF016A
:100AA0000E94B409809156248A3410F48F5F01C0EB
:100AB00080E0809356242CEC3AEA41E050E066E571
:100AC00074E280EA90E00E94980A8FE992E09F9396
:100AD0008F931F9281E08F930E944E0B0F900F9087
:100AE0000F900F9040E068EE73E08CEC92E01F9165
:100AF0000F910C9470158CEA94E208958CEA94E2BC
:100B00000895809344209093452060934320089556
:100B1000CF92DF92EF92FF920F931F93CF93DF93C9
:100B2000CDB7DEB72A97CDBFDEBF90910720809169
:100B300008068078981701F18091080687FD1CC08F
:100B400086E292E09F938F931F9281E08F930E94A1
:100B50004E0B8CEC92E00E94971540E062E370E04F
:100B60008CEC92E00E94701541E068EB7BE088EC31
:100B700093E00E94701512C0809108068078981743
:100B800089F08091080687FF0DC081E192E09F9374
:100B90008F931F9281E08F930E944E0B0F900F90C6
:100BA0000F900F90809108068078809307200E9414
:100BB0004C0F8823A1F11092A024CE0102960E942E
:100BC000010F89E0FE013296A4EBB4E201900D9290
:100BD0008A95E1F78091A224813071F4E09043205E
:100BE00000E029E044EB54E265E3809144209091D9
:100BF00045200E946C0E13C08091B6249091B724BA
:100C00009C01275F3F4F2930310518F420E080E038
:100C100002C0282F892F2093B6248093B7240E94E6
:100C20008E16813009F003C1CE0101960E945A163A
:100C30006093AC247093AD248093AE249093AF2442
:100C4000611571058105910509F468C0A0E7B4E25A
:100C5000E0E00D911D912D913D9106171707280792
:100C6000390750F40D911D912D913C911397061762
:100C700017072807390718F4EF5FEC3051F7F0E059
:100C8000DF01AA0FBB1FAA0FBB1FA059BB4DCD9000
:100C9000DD90ED90FC909B01AC012C193D094E09B3
:100CA0005F09DF01AA0FBB1FA85ABB4D0D911C9114
:100CB000DF01AA0FBB1FA65ABB4D0D90BC91A02D02
:100CC000A01BB10B0E942B1BEE0FFF1FEE0FFF1F8F
:100CD000EC58FB4D20813181428153812C193D0913
:100CE0004E095F090E94DB1A200F311F411D511D63
:100CF0008981811107C050954095309521953F4FCE
:100D00004F4F5F4FC9010996439718F420E030E038
:100D1000A9012093B0243093B12404C01092B024D0
:100D20001092B1240E945B028093B2249093B3246A
:100D30008091A1248093BD248091B0249091B1240E
:100D40008093A4249093A5248091B6249091B724F5
:100D50008093A6249093A7240E945D186093A824F2
:100D60007093A9248093AA249093AB248091A22409
:100D700081115DC00E94A80D80915724813009F037
:100D800049C08091462090914720A0914820B09181
:100D90004920893F9F4FA144B10578F080E00E942F
:100DA0000303809156248B3410F085E501C080E068
:100DB0000E94D10281E00E9403036091462070915D
:100DC0004720809148209091492008E010E020E0E1
:100DD00030E044EA54E20E94B409809146209091A8
:100DE0004720A0914820B09149200896A11DB11D2F
:100DF0008093462090934720A0934820B0934920A9
:100E00002CEC3AEA44E050E066E470E280EC90E0DA
:100E10000E94980A8091A024882331F080ED9AE8FE
:100E20008093B6249093B72481E08093A0242A96DF
:100E3000CDBFDEBFDF91CF911F910F91FF90EF905B
:100E4000DF90CF9008950F93CF93DF931F92CDB78C
:100E5000DEB72FB72983F8941BBEFC0108ED04BF51
:100E6000608389818FBF0F90DF91CF910F9108959B
:100E7000662311F090E201C090E0842B892B8093CF
:100E800052000895E0E5F0E02081982F909592239C
:100E90009083908189230895682B81E490E00C94DD
:100EA00023071F93CF93DF93182FC0E4D0E068810E
:100EB000687F682B80E490E00E942307888181236B
:100EC000DF91CF911F91089561E082E490E00C944E
:100ED0002307FC012081207F622B60830895FC01A1
:100EE0002081207F622B60830895FC012181287F6F
:100EF000622B61830895FC01238120712062262BDF
:100F000023830895FC0121816073622B618308951E
:100F1000FC0126812C7F622B66830895FC012781CA
:100F20002C7F622B67830895FC0127812C7F622B25
:100F3000678308950E94E9140E944718A89520E04D
:100F400030E448E350E060E071EE80E090E00E9421
:100F50006A148CE493E09F938F931F9281E08F93A8
:100F60000E944E0BA8950E943815A89581E493E045
:100F70009F938F931F9281E08F930E944E0B40E0CE
:100F800050E468E370E084E190E00E94D815A895F1
:100F90008FE293E09F938F931F9281E08F930E9443
:100FA0004E0B0E944C17A89584E293E09F938F9379
:100FB0001F9281E08F930E944E0B20E030E448E3C3
:100FC00050E060E07BE480E090E00E94C210A895D1
:100FD00089E193E09F938F931F9281E08F930E940A
:100FE0004E0B20E030E448E350E060E875E280E03A
:100FF00090E00E942012A8958FE093E09F938F933A
:101000001F9281E08F930E944E0B0E94E10BA895E6
:1010100084E093E09F938F931F9281E08F930E94CF
:101020004E0B60E472E48FE090E00E94BD14A8953E
:1010300085EF92E09F938F931F92C1E0CF930E9420
:101040004E0B8DB79EB780968DBF9EBF0E94DA086B
:1010500081110DC080EE92E09F938F931F92CF93EA
:101060000E944E0B0F900F900F900F90FFCFA895FE
:1010700086ED92E09F938F931F9281E08F930E9461
:101080004E0B0E945302A8958BEC92E09F938F9396
:101090001F9281E08F930E944E0B0E94BB04E12CB3
:1010A00000E02BE046E350E26BE78EEF9FEF0E94FB
:1010B0006C0E8DB79EB708968DBF9EBF0E94B0156F
:1010C000A89580E00E94780CA89581E00E94780C99
:1010D000A8950E948805A895F1CF1F93CF93DF9321
:1010E000C0E6D6E011E01E8387ED0E94B41480E0D4
:1010F0000E94B4141D838095881F8827881FDF9164
:10110000CF911F910895CF92DF92EF92FF921F939C
:10111000CF93DF9300D000D0CDB7DEB7182F49832F
:101120005A836B837C830E94B41449815A816B81FA
:101130007C81CB01BA0120E132E040E050E00E9426
:10114000DB1A69017A012AE0CC0CDD1CEE1CFF1CC5
:101150002A95D1F7C62AD72AE82AF92A8E2D0E9485
:10116000B4148D2D0E94B4148C2D0E94B414123D21
:10117000B1F480E00E94B41480E00E94B41480E0D6
:101180000E94B41480E02496CDBFDEBFDF91CF91E2
:101190001F91FF90EF90DF90CF900C94B4142496A1
:1011A000CDBFDEBFDF91CF911F91FF90EF90DF9019
:1011B000CF900895EF92FF920F931F93CF93DF93F9
:1011C00000D01F92CDB7DEB780E28093410680E465
:1011D0008093420688E18093560680E8809341061A
:1011E00081E080936106809365060E946D088130DE
:1011F000E1F381E0809366068FE90E94B4148E01CA
:101200000F5F1F4F7E0184E0E80EF11C80E00E941A
:10121000B414F80181938F01EE15FF05B9F781E051
:101220008093650689818F3121F481E09A8197321C
:1012300009F080E02396CDBFDEBFDF91CF911F91F3
:101240000F91FF90EF9008952F923F924F925F92EF
:101250006F927F928F929F92AF92BF92CF92DF92C6
:10126000EF92FF920F931F93CF93DF93CDB7DEB72B
:101270002697CDBFDEBF4B015C011A0168017901E1
:10128000C114D104E104F10409F458C0A895C501C2
:10129000B40120E132E040E050E00E94DB1A30E18E
:1012A000432E32E0532E612C712C461A570A680ADD
:1012B000790AC414D504E604F70410F426013701B2
:1012C0000E946D08813011F4A895FACF81E08093D7
:1012D0006606B501A40182ED0E948308810140E009
:1012E00050E0BA0198012F5F3F4F190180E02D8334
:1012F0003E8349835A836B837C830E94B414F80134
:10130000808349815A816B817C814F5F5F4F6F4F32
:101310007F4F2D813E81441555056605770510F4F4
:101320008901E0CFF1E0F0936506840C951CA61CC2
:10133000B71CC418D508E608F708A2CF2696CDBF7B
:10134000DEBFDF91CF911F910F91FF90EF90DF9063
:10135000CF90BF90AF909F908F907F906F905F9055
:101360004F903F902F9008952F923F924F925F920F
:101370006F927F928F929F92AF92BF92CF92DF92A5
:10138000EF92FF920F931F93CF93DF93CDB7DEB70A
:101390002697CDBFDEBF6B017C011A0148015901C0
:1013A00011E081149104A104B10409F463C0A8956B
:1013B000C701B60120E132E040E050E00E94DB1AB4
:1013C00040E1442E42E0542E612C712C461A570AFB
:1013D000680A790A84149504A604B70410F4240159
:1013E00035010E946D08813011F4A895FACF109351
:1013F0006606B701A60183E50E948308109365067F
:101400000E946D08813011F4A895FACF10936606FA
:10141000B701A60182E80E948308F10140E050E094
:10142000BA019F012F5F3F4F190180812D833E83B9
:1014300049835A836B837C830E94B41449815A8107
:101440006B817C814F5F5F4F6F4F7F4F2D813E815E
:10145000441555056605770510F4F901E2CF1093A0
:101460006506C40CD51CE61CF71C84189508A60854
:10147000B70897CF2696CDBFDEBFDF91CF911F91E2
:101480000F91FF90EF90DF90CF90BF90AF909F9023
:101490008F907F906F905F904F903F902F90089526
:1014A0008091CF0187FDFCCF0895CF93DF9300D0CB
:1014B000CDB7DEB789839A830E94500AE0ECF1E051
:1014C000898180839A819F719183128286E08287CD
:1014D000EBECF1E021E030E088ED90E084BF208388
:1014E000E0ECF1E084810F900F90DF91CF910895AF
:1014F000DF92EF92FF920F931F93CF93DF938C01B4
:101500007A01D62EEB012C2F2D19822F90E08E150B
:101510009F0530F4800F911F0E94550A8993F3CFE5
:10152000DF91CF911F910F91FF90EF90DF90089581
:101530002F923F924F925F926F927F928F929F92E3
:10154000AF92BF92CF92DF92EF92FF920F931F93D1
:10155000CF93DF93CDB7DEB7A097CDBFDEBF5B01E2
:101560008A012C3C3A4A09F076C09C0195E03695F8
:1015700027959A95E1F7222E382EA0EE2A9F300C5F
:101580001124C12CD12C28ED622E712C8824839437
:10159000912C4BEC442E55245394E22CEC0C011569
:1015A000110509F458C0B0E2EB9E7001112440E22D
:1015B00050E0BE016F5F7F4FC7010E94780A0E9412
:1015C000500A8091CF0181FF07C0E6E3E093CA0192
:1015D000C301F20184BF808295015901BFE1B315B7
:1015E00090F00115110579F02F5F3F4FE1E0F0E039
:1015F000EC0FFD1FE30DF11DD5018C91808301508F
:1016000011093394EACF0E94500AE3E3E093CA0140
:101610001092C1011092C201FE01319680E08093C8
:10162000C00191919093C4018F5F8032C1F70E94F5
:10163000500AE092C001F092C1011092C201F5E39C
:10164000F093CA01C301F20184BF80829FEFC91ADF
:10165000D90A312CA2CFA096CDBFDEBFDF91CF91AA
:101660001F910F91FF90EF90DF90CF90BF90AF90C0
:101670009F908F907F906F905F904F903F902F90B2
:101680000895623011F40C949110613011F40C94AF
:10169000EF11611102C00C9439140895EF92FF927A
:1016A0000F931F93CF93DF93CDB7DEB7EA849E01EC
:1016B000235F3F4F4B855C856FE170E08EEB94E2DA
:1016C0000E94451B8985811118C0F12C0EEB14E294
:1016D000F80101900020E9F78F2D90E0EE5BF442D5
:1016E0008E179F07E0F4FC01E254FB4D40E06E2DA5
:1016F00080810E94410BF394EBCFEEEBF4E201907A
:101700000020E9F73197EE5BF44221E02E0F00E074
:101710004EEB54E26FEF8EEF9FEF0E946C0EDF9165
:10172000CF911F910F91FF90EF9008950895892F09
:10173000089582E0E0E4F6E0858300000000000008
:101740000000000000008683000000000000000090
:1017500000000000089582E0E0E4F6E085830000E8
:101760000000000000000000000081E0868300000F
:101770000000000000000000000082E086830000FE
:1017800000000000000000000000089581E0E0E497
:10179000F6E086830000000000000000000000006A
:1017A00082E08583000000000000000000000000CF
:1017B00081E08583000000000000000000000000C0
:1017C0000895E0E4F6E081E0818392E091839683DE
:1017D00086839583858308950F931F93CF93DF931B
:1017E0001F92CDB7DEB718E001E087FF03C000937A
:1017F000450602C000934606880F89830E94990B14
:10180000115089811111F1CF81E0809345068093B9
:10181000420600000000000000000000000082E01E
:10182000809345060000000000000000000000005A
:101830008091480692E09093460691E0909341068D
:10184000000000000000000000000000909345062A
:1018500000000000000000000000000080FF02C047
:1018600080E201C088E10F90DF91CF911F910F912D
:1018700008950F931F93CF93DF931F92CDB7DEB7D9
:1018800091E09093420698E010E022E0110F20933F
:10189000450600000000000000000000000030913C
:1018A000480630FD1F5F2093460600000000000040
:1018B000000000000000915049F701E0009341064C
:1018C000813049F48093460689830E94990B89816F
:1018D0008093450606C0009345060E94990B00932D
:1018E0004506812F0F90DF91CF911F910F910895A1
:1018F000EF920F931F93CF93DF93CDB7DEB7CC5DFD
:10190000D109CDBFDEBFE82E0E94E00E882309F486
:1019100015C16E2DCE0101960E945F0E8E81883119
:1019200009F489C090F58E3009F4AEC078F48A309D
:1019300009F4D3C08C3009F4E6C0833009F0FEC04E
:1019400000E020E040E050E064E0EFC0823109F4C4
:1019500091C068F4803109F0F1C0CE0107960E9471
:10196000091900E020E040E050E061E1DEC0843190
:1019700009F473C0863109F0E1C00E94DD0300E084
:1019800020E040E050E067E1D0C0803609F49BC021
:1019900008F5823309F486C018F48A31F1F1CEC01B
:1019A000843309F483C08E3509F0C8C00E9417043F
:1019B00028E4FC01AEEDB4E201900D922A95E1F726
:1019C0000E941A048093262500E029E44EED54E29B
:1019D0006FE5ABC0843609F45EC050F4823609F07E
:1019E000ADC00E947E05AC0100E024E063E69DC02E
:1019F000883709F4A0C0893709F0A0C08AEC9CEAB6
:101A0000ACECBAEA8093002090930120A0930220CE
:101A1000B09303200E9455188DC08F81823021F031
:101A2000CE0107960E942B020E94500200E022E0A5
:101A3000AC016BE17AC00F8110E020E030E06885F6
:101A400079858A859B854EED54E20E94240900E049
:101A50002F814EED54E269E168C00E94DA032F81C4
:101A6000AC013AE4239F400D511D112400E02AE40B
:101A700065E15BC08F810E94430400E021E0AE017C
:101A8000495F5F4F63E151C00E945A1800E024E0B3
:101A9000AC016FE04AC00E947B05AC0100E022E18E
:101AA00065E643C08F810E94630448C06E2D8A8121
:101AB0009B810E948105AE01485F5F4F6F8187E087
:101AC0000E940A0F3BC0CE0107960E941D0400E051
:101AD00020E040E050E061E628C08091082090912D
:101AE00009200E94960B8093DE248091082090911B
:101AF00009200E94970B8093DF2400E022E04EED46
:101B000054E26BE012C02CEC3AEA42E050E0BE0135
:101B1000695F7F4F80E690E00E94980A0E948D04E2
:101B200000E020E040E050E06DE08A819B810E946F
:101B30006C0E04C0FFCF0E945518FFCFC452DF4F78
:101B4000CDBFDEBFDF91CF911F910F91EF90089530
:101B50004AE050E26BEA87E00C940A0F70E08136AD
:101B6000B1F48CED869FF001879FF00D1124E055B4
:101B7000FA4D10821582DF01A852BF4F1C921196B8
:101B80001C9211961C92E552FF4F108272C09CED80
:101B9000969FF001979FF00D1124E055FA4DDF015B
:101BA000A652BF4F9C91913009F463C0E552FF4F9C
:101BB0009081913061F4813319F4108281E709C07A
:101BC000823319F4108281E604C09C9352C081379D
:101BD000D9F19CED969FF001979FF00D1124E055EF
:101BE000FA4DDF01A752BF4F9C919F5F9C931197C5
:101BF0002C91280F2C93913099F1923019F4118285
:101C0000828337C0933039F421813281280F311D0E
:101C1000218332832EC0943019F41382848329C027
:101C20009530A1F423813481280F311D238334831F
:101C3000809108209091092028173907D1F02F3F73
:101C40003F4FB9F0E652FF4F81E00AC0963011F4E1
:101C500085830FC03081931728F4E90FF11D319768
:101C6000808307C0E652FF4F81E08083211101C0CD
:101C7000089580E008950F931F93CF93DF93082F6B
:101C8000EB01142F40E0612F813739F481E70E9486
:101C9000410B40E0612F81E308C0813631F481E7D8
:101CA0000E94410B40E0612F82E30E94410B88813A
:101CB000800F8883DF91CF911F910F9108952CEDB4
:101CC000629FF0011124E055FA4D2CEDDC010190EA
:101CD0000D922A95E1F70895CF92DF92EF92FF924D
:101CE0000F931F93CF93DF9300D0CDB7DEB78C0156
:101CF000C62ED42EF22E198240E06E2D81E65A8334
:101D00000E94410B4E2DBE016F5F7F4F87E08F0D0C
:101D10000E943B0E80910820909109200E94970B11
:101D20004E2DBE016F5F7F4F0E943B0E80910820B9
:101D3000909109200E94960B4E2DBE016F5F7F4F40
:101D40000E943B0EC8010E94970B4E2DBE016F5F93
:101D50007F4F0E943B0EC8010E94960B4E2DBE0184
:101D60006F5F7F4F0E943B0E4E2DBE016F5F7F4F16
:101D70008C2D0E943B0ECD2C0D2D5A81152F802FBE
:101D80008C198F1550F44E2DBE016F5F7F4FF801F7
:101D900081918F010E943B0EF2CF89814E2DBE01B1
:101DA0006F5F7F4F81950E943B0E0F900F90DF91E8
:101DB000CF911F910F91FF90EF90DF90CF900895FA
:101DC000CF93DF931F92CDB7DEB7813051F4CE01B0
:101DD00001960E945E11813011F080E00EC061E03A
:101DE00009C08111FACFCE0101960E94AC13813057
:101DF000A1F760E089810E94AE0D0F90DF91CF9135
:101E0000089529E0ECE8F6E2DC0101900D922A95B4
:101E1000E1F70895CF92DF92EF92FF920F931F9315
:101E2000CF93DF931F92CDB7DEB7F82E062FE42EA7
:101E30008EEF59830E94911081E00E9491108F2DA6
:101E40000E949110802F0E94911010E00F0D111D23
:101E5000CE2C5981D52EF60181916F01080F111DED
:101E60000E9491108C2D8E19F816A8F7C8016FEFFB
:101E700070E00E94B31A0E94911083E00E949110BA
:101E800080EF0F90DF91CF911F910F91FF90EF9016
:101E9000DF90CF900C9491101F93CF93DF931F92FC
:101EA000CDB7DEB7CE0101960E940510182F813004
:101EB00009F06EC06981613069F48091A4268E3F7B
:101EC000B1F5109295261092A0261092A12610929C
:101ED000A2262AC0603F59F58091A426833039F5A7
:101EE000E0919526EE2319F18091A0269091A126EC
:101EF0006FEF70E00E94B31A8093A0269093A12602
:101F0000F0E0EB56F94D418150E08417950761F4FC
:101F10001093A32689E0E6E9F6E2ACE8B6E2019088
:101F20000D928A95E1F735C01092A32631C06093D7
:101F3000A4268091A326813059F18091A2268F5F3B
:101F40008093A226813019F4609395260EC090E00C
:101F50002091952630E0AC014150510924173507F6
:101F60007CF0FC01EC56F94D60838091A0269091A5
:101F7000A126860F911D8093A0269093A12608C0CC
:101F800002978217930721F4FC01EB56F94D618308
:101F900010E0812F0F90DF91CF911F9108951F9234
:101FA0000F920FB60F9211242F938F939F93EF935D
:101FB000FF932091A0088091182090911920892BDF
:101FC000D1F0E0911C20F0911D20208380911820F9
:101FD000909119200197809318209093192086E200
:101FE000EC3CF80711F0319602C0E9EBF6E2E09321
:101FF0001C20F0931D20FF91EF919F918F912F91C5
:102000000F900FBE0F901F9018952091A3082F7C62
:102010002093A308209118203091192024313105F4
:10202000F1F0E0911A20F0911B202081DC012C932B
:1020300080911820909119200196809318209093F8
:102040001920B6E2EC3CFB0711F0319602C0E9EB37
:10205000F6E2E0931A20F0931B2081E001C080E0BB
:102060009091A3089F7C90619093A30808951F927C
:102070000F920FB60F9211248F939F93EF93FF93BC
:102080008091122090911320449711F1E091142037
:10209000F091152080818093A0088091122090916A
:1020A00013200196809312209093132086E2E83B40
:1020B000F80711F0319602C0E5EAF6E2E093142049
:1020C000F09315208091A10880648093A1080BC033
:1020D0008091A3088C7F8093A3088091A308837FBD
:1020E00084608093A308FF91EF919F918F910F904F
:1020F0000FBE0F901F9018951F920F920FB60F9260
:1021000011248F93EF93FF93E0EAF8E08381837FBC
:102110008383FF91EF918F910F900FBE0F901F90CF
:1021200018952091122030911320232BD1F39091F8
:10213000A308937F9093A3089091A3089C7F90930A
:10214000A308E0911620F09117208083809112203F
:10215000909113200197809312209093132086E290
:10216000E83BF80711F0319602C0E5EAF6E2E093A9
:102170001620F09317208091A3088C7F81608093B4
:10218000A3080895CF92DF92EF92FF92CF93DF934F
:102190006B017C01E0E4F6E088E0818384E08283E7
:1021A000E0E7F0E083818F7E8383C0EAD8E083E0BC
:1021B0008D8384E0CC0CDD1CEE1CFF1C8A95D1F7CE
:1021C000CA01B901A70196010E94FD1A21503109E7
:1021D000410951092E83BB27A52F942F832F8F836D
:1021E0008C8180618C838C8188608C838B818C7FD7
:1021F0008B838B81837F8B838B818F7C80618B83AF
:10220000E0EAF0E0828181608283DF91CF91FF90EC
:10221000EF90DF90CF9008951F920F920FB60F921C
:1022200011242F933F934F935F936F937F938F93DB
:102230009F93AF93BF93EF93FF932091A009809159
:10224000242090912520892BD9F0E0912820F0912D
:10225000292020838091242090912520019780932C
:1022600024209093252088E2E037F80711F031967A
:1022700002C0EFE9F7E2E0932820F09329200DC097
:1022800084E993E09F938F931F9281E08F930E9444
:102290004E0B0F900F900F900F90FF91EF91BF9109
:1022A000AF919F918F917F916F915F914F913F91EE
:1022B0002F910F900FBE0F901F9018952091A3099A
:1022C0002F7C2093A3092091242030912520223DAA
:1022D0003105F1F0E0912620F09127202081DC01EA
:1022E0002C93809124209091252001968093242086
:1022F00090932520B8E2E037FB0711F0319602C039
:10230000EFE9F7E2E0932620F093272081E001C077
:1023100080E09091A3099F7C90619093A309089518
:102320001F920F920FB60F9211248F939F93EF93EA
:10233000FF9380911E2090911F20823D910531F1E5
:102340008091680685FD2DC0E0912020F09121202C
:1023500080818093A00980911E2090911F2001967A
:1023600080931E2090931F2087E2EE39F80711F02A
:10237000319602C0EDECF6E2E0932020F0932120AC
:102380008091A10980648093A1090BC08091A30969
:102390008C7F8093A3098091A309837F84608093BD
:1023A000A309FF91EF919F918F910F900FBE0F9016
:1023B0001F9018951F920F920FB60F9211248F93B2
:1023C000EF93FF93E0EAF9E08381837F8383FF91BA
:1023D000EF918F910F900FBE0F901F901895209145
:1023E0001E2030911F20232BD1F39091A309937FBE
:1023F0009093A3099091A3099C7F9093A309E091E6
:102400002220F0912320808380911E2090911F2014
:10241000019780931E2090931F2087E2EE39F807E2
:1024200011F0319602C0EDECF6E2E0932220F09339
:1024300023208091A3098C7F81608093A309089554
:10244000CF92DF92EF92FF920F931F93CF93DF9380
:102450001F92CDB7DEB76B017C0188E080936106E7
:1024600084E080936206809174008F7E8093740074
:1024700083E08093A50984E0CC0CDD1CEE1CFF1CDE
:102480008A95D1F7CA01B901A70196010E94FD1AE8
:1024900021503109410951092093A609BB27A52FD5
:1024A000942F832F8093A7098091A4098061809342
:1024B000A4098091A40988608093A4098091A3094C
:1024C0008C7F8093A3098091A309837F8093A309C4
:1024D0008091A3098F7C80618093A3098091A200E1
:1024E00081608093A200A8952FEF8FE995E021509D
:1024F00080409040E1F700C00000A89580E88093FC
:1025000066068FEF93EB0197F1F700C00000A895E6
:1025100080E8809365068FEF93EB0197F1F700C099
:102520000000A895198282E00E94EF118DE00E94C0
:10253000EF1180E00E94EF118FE00E94EF11CE01B9
:1025400001960E945E118111FACF8FEF93EB0197F4
:10255000F1F700C00000CE0101960E945E118111CA
:1025600012C01F921F9287E893E09F938F931F9250
:1025700081E08F930E944E0B0F900F900F900F9061
:102580000F900F90FFCF8AE793E09F938F931F9256
:1025900081E08F930E944E0B82E00E94EF118AE04F
:1025A0000E94EF1182E00E94EF118AE20E94EF1177
:1025B00081E00E94EF1181E20E94EF110F900F90D5
:1025C0000F900F90CE0101960E945E118111FACFFB
:1025D0008FEF97E40197F1F700C00000A89510E095
:1025E00000E0CE0101960E945E1181110F5F06305E
:1025F00011F41981F6CF0730A0F31F921F9384E6E0
:1026000093E09F938F931F9281E08F930E944E0BD4
:102610000F900F900F900F900F900F901A3609F1B6
:1026200082E00E94EF1189E00E94EF1183E00E9496
:10263000EF118AE20E94EF1181E00E94EF118AE619
:102640000E94EF1189E40E94EF119FEF2FE985E0CE
:10265000915020408040E1F700C000000E945518D2
:10266000FFCFCE0101960E945E118111FACF80E862
:10267000809366068FEF93EB0197F1F700C000009F
:1026800000E0CE0101960E945E1181110F5F0430BF
:1026900011F41981F6CF0530A0F3112391F01F92A8
:1026A0001F9387E593E09F938F931F9281E08F9311
:1026B0000E944E0B0F900F900F900F900F900F9065
:1026C000FFCFEE24E39400E02BE046E350E26BE71B
:1026D0008EEF9FEF0E946C0E0F90DF91CF911F91B4
:1026E0000F91FF90EF90DF90CF9008951F920F927F
:1026F0000FB60F9211242F938F939F93EF93FF9315
:102700002091A00A8091302090913120892BD1F026
:10271000E0913420F09135202083809130209091F9
:102720003120019780933020909331208AE2E83263
:10273000F80711F0319602C0EDE4F9E2E09334209D
:10274000F0933520FF91EF919F918F912F910F90F2
:102750000FBE0F901F9018952091A30A2F7C2093F5
:10276000A30A20913020309131202C3D3105F1F029
:10277000E0913220F09133202081DC012C93809174
:102780003020909131200196809330209093312019
:10279000BAE2E832FB0711F0319602C0EDE4F9E24B
:1027A000E0933220F093332081E001C080E09091EB
:1027B000A30A9F7C90619093A30A08951F920F92A1
:1027C0000FB60F9211248F939F93EF93FF938091F5
:1027D0002A2090912B208C3D910511F1E0912C2025
:1027E000F0912D2080818093A00A80912A209091E1
:1027F0002B20019680932A2090932B2089E2EC34A1
:10280000F80711F0319602C0E1E7F8E2E0932C20DE
:10281000F0932D208091A10A80648093A10A0BC0BF
:102820008091A30A8C7F8093A30A8091A30A837F5F
:1028300084608093A30AFF91EF919F918F910F90F5
:102840000FBE0F901F9018951F920F920FB60F9208
:1028500011248F93EF93FF93E0EAFAE08381837F63
:102860008383FF91EF918F910F900FBE0F901F9078
:10287000189520912A2030912B20232BD1F3909171
:10288000A30A937F9093A30A9091A30A9C7F9093AD
:10289000A30AE0912E20F0912F20808380912A209E
:1028A00090912B20019780932A2090932B2089E2EE
:1028B000EC34F80711F0319602C0E1E7F8E2E0935A
:1028C0002E20F0932F208091A30A8C7F816080932B
:1028D000A30A0895CF92DF92EF92FF92CF93DF93F6
:1028E0006B017C01E0E8F6E088E0818384E082838C
:1028F000E0E7F0E085818F7E8583C0EADAE083E05F
:102900008D8384E0CC0CDD1CEE1CFF1C8A95D1F776
:10291000CA01B901A70196010E94FD1A215031098F
:10292000410951092E83BB27A52F942F832F8F8315
:102930008C8180618C838C8188608C838B818C7F7F
:102940008B838B81837F8B838B818F7C80618B8357
:10295000E0EAF0E0828181608283DF91CF91FF9095
:10296000EF90DF90CF9008958093C3088091C208C4
:1029700087FFFCCF8091C3080895E0E4F6E080E48F
:10298000828388E1868BE0E7F0E08381877F838321
:10299000E0ECF8E080ED80838281838108954BE054
:1029A00061E080E40E943807809150008860809345
:1029B00050008091510083FFFCCF83E00E945107BB
:1029C00087E10E94420760E080E00E944C070C947F
:1029D00064078FE3809378000E944C18E0E0F6E0F3
:1029E00084E481838683A0E4B6E087ED11968C931E
:1029F000119715968C93A0E6B6E085ED11968C9311
:102A0000119785E815968C93159780E516968C930B
:102A100084E0A0E8B6E011968C938583E0E7F0E0CF
:102A20008DE1808387E0818382838FE78383848342
:102A300085838683E0ECF1E08485826084878485E9
:102A40008460848788ED84BF81E0809396000E9433
:102A5000CF142FEF8FE191E0215080409040E1F7BB
:102A600000C0000080E4E0E6F6E0858378940895F5
:102A70008091042080FF03C088E094E025C080910D
:102A8000042081FF03C088EF93E01EC080910420E2
:102A900082FF03C087EE93E017C08091042083FF7C
:102AA00003C087ED93E010C08091042084FF03C031
:102AB0008EEB93E009C08091042085FF03C08EEA6D
:102AC00093E002C08EE993E09F938F931F9281E081
:102AD0008F930E944E0B0F900F900F900F900895C0
:102AE0002091292A30912A2A232B49F02091302A3B
:102AF0003091312A232BC9F4E0E3FAE202C0E9E283
:102B0000FAE28083918346836531710530F0CB0111
:102B100064E170E00E94B31A02C061E070E0628379
:102B200073836483758381E0089580E00895209124
:102B3000292A30912A2A2817390751F02091302A62
:102B40003091312A2817390749F4E0E3FAE202C04C
:102B5000E9E2FAE21082118281E0089580E00895AE
:102B6000CF93DF938091392A8130F9F4C9E2DAE218
:102B7000E881F981309791F08C819D8101978C8358
:102B80009D83892B59F409958E81811105C08A8115
:102B90009B818C839D8302C01882198227968AE2CA
:102BA000C733D80729F71092392ADF91CF910895BA
:102BB000EF92FF920F931F93CF93DF9300D000D03B
:102BC000CDB7DEB78C019A01AB01E0E7F0E083817D
:102BD0008E7F8383E12C88E0F82E8FEF9FEFD70163
:102BE00096968D939C93979760E080E098E0298378
:102BF0003A834B835C830E94750765E080E098E030
:102C00000E9469078EE0E9E2FAE2DF011D928A95EF
:102C1000E9F7D80129813A814B815C810E94361BFA
:102C200020E03AEF40E050E00E94FD1A2093372A5E
:102C30003093382A8091372A9091382AF70180A75B
:102C400091A761E080E098E00E948E07E0EAF0E062
:102C50008281816082832496CDBFDEBFDF91CF91D8
:102C60001F910F91FF90EF9008951F920F920FB652
:102C70000F9211242F933F938F939F93EF93FF9382
:102C8000E0E0F8E020A531A58091372A9091382A1C
:102C9000820F931F80A791A781E08093392AFF912B
:102CA000EF919F918F913F912F910F900FBE0F90B9
:102CB0001F901895CF92DF92EF92FF920F931F9380
:102CC000CF93DF931F92CDB7DEB78C018FB7898387
:102CD000F894C090422AD090432AE090442AF09081
:102CE000452A0E941A04882339F09091622A81E0D3
:102CF000992321F080E002C08091622AF80180834C
:102D000089818FBFC701B6010F90DF91CF911F91CD
:102D10000F91FF90EF90DF90CF9008958F929F9248
:102D2000AF92BF92CF92DF92EF92FF9280915A2A98
:102D3000813009F0A7C080915E2A809580935E2A39
:102D400080915D2A809580935D2A80915E2A2091F2
:102D50005D2A90E0982F8827820F911D8093582A32
:102D60009093592A20915C2A4091582A5091592ACF
:102D700030E0A0E0BDE20E941C1B640F751F811DA6
:102D8000911D4B015C012FEF821A920AA20AB20A2E
:102D900080924E2A90924F2AA092502AB092512AA5
:102DA000C0904A2AD0904B2AE0904C2AF0904D2AAD
:102DB0002FEFC20E20EED21EE11CF11CC61AD70A5C
:102DC000E80AF90AC092462AD092472AE092482A95
:102DD000F092492A80924A2A90924B2AA0924C2A39
:102DE000B0924D2A6091542A7091552A80E090E06B
:102DF0000E94C21920E038EC4FEA5AE40E94501AAF
:102E00004B015C0160933A2A70933B2A80933C2AE1
:102E100090933D2AC701B6010E94C2199B01AC01E3
:102E2000C501B4010E942E190E9496196093422A8E
:102E30007093432A8093442A9093452A613221EA71
:102E4000720727E08207910588F080913E2A9091D1
:102E50003F2AA091402AB091412A8093422A909320
:102E6000432AA093442AB093452A08C060933E2A7F
:102E700070933F2A8093402A9093412A10925A2AB5
:102E800081E001C080E0FF90EF90DF90CF90BF9095
:102E9000AF909F908F900895E0E0F6E081E082830C
:102EA00089E1808BE0E7F0E083818D7F838380E59B
:102EB0008093800168E080E498E00E947B0760E1F5
:102EC00080E498E00E94820780E09DE2E0E4F8E080
:102ED00086A397A365E080E498E00E946F0763E013
:102EE00080E498E00E94940763E080E498E00E9408
:102EF0008807E0EAF0E08281846082831092562A9B
:102F00001092572A84E080935B2A10924A2A1092EA
:102F10004B2A10924C2A10924D2A10925A2A089548
:102F20001F920F920FB60F9211248F939F93CF93FE
:102F3000DF931F92CDB7DEB78FB78983F894809166
:102F40004C0884FF1CC08091080686958170809390
:102F5000622A80E180934C088FEF9FEF8093582A7C
:102F60009093592A80915B2A80935F2A8091562AF8
:102F70009091572A01968093562A9093572A8091D0
:102F80005B2A882331F080915B2A815080935B2AF1
:102F90001EC08091562A9091572A8093542A90936C
:102FA000552A1092562A1092572A8091612A8093AE
:102FB0005E2A8091602A80935D2A80915F2A8093A7
:102FC0005C2A84E080935B2A81E080935A2A88E01F
:102FD0008093490889818FBF0F90DF91CF919F9196
:102FE0008F910F900FBE0F901F9018951F920F9208
:102FF0000FB60F9211248F939F93EF93FF93CF936C
:10300000DF931F92CDB7DEB78FB78983F894E0E0E6
:10301000F6E08085869581708093622AE0E4F8E08E
:1030200080A591A58093522A9093532A8091522A89
:103030009091532A9093612A8091522A9091532A19
:103040008093602A80915B2A80935F2A8091562A20
:103050009091572A01968093562A9093572A8981F6
:103060008FBF0F90DF91CF91FF91EF919F918F9143
:103070000F900FBE0F901F901895836098ED94BF2E
:10308000809380008091820080FDFCCF089580E2D3
:103090000E943D18A8950895E0E8F0E080818C7FBB
:1030A000816098ED94BF8083089580E10E943D186F
:1030B000A895089583E69AE20895EF92FF920F9300
:1030C0001F93CF93DF93CDB7DEB72897CDBFDEBF79
:1030D0000E94AB0B80ED0E94EC0B80E00E94EC0B99
:1030E0000E94AB0B81ED0E94EC0B8E010F5F1F4F16
:1030F0007E0137E0E30EF11C81E00E94390CF801FB
:1031000081938F01EE15FF05B9F780E00E94390C1D
:1031100088870E94C60B3981232F20772695269514
:103120002695922F990F990F920F3F70930F4A8116
:10313000342F3077369536953695232F220F220F70
:10314000230F4F70240F322F3295330F330F307C03
:103150009F73932B9093632A269526954B81342F4A
:103160003073369536953695932F990F990F930FA7
:103170004F70940F392F3295307F2F70232B20936F
:10318000642A94FB552750F93D81232F20732695FF
:1031900026952695922F990F990F920F3F70930FB6
:1031A0009F71990F3E8134FB442740F9440F242F2F
:1031B000220F220F240F3F70230F322F3295330F2F
:1031C000330F307C952B932B9093652A269526956B
:1031D0008885982F92959F708F70FAE09F9F800D41
:1031E0001124880F880F2370282B2093662A609162
:1031F000632A7091642A8091652A9091662A2896A4
:10320000CDBFDEBFDF91CF911F910F91FF90EF9067
:103210000895EF92FF921F93CF93DF931F92CDB744
:10322000DEB7182F99830E94AB0B80ED0E94EC0B48
:1032300080E00E94EC0BE12E9981F92E17E0F70156
:1032400081917F010E94EC0B1150C9F70F90DF9123
:10325000CF911F91FF90EF900C94C60B0CD0E6C05D
:10326000DED040F0D5D030F021F45F3F19F0C7C078
:10327000511110C1CAC0EBD098F39923C9F355235B
:10328000B1F3951B550BBB27AA2762177307840759
:1032900038F09F5F5F4F220F331F441FAA1FA9F30F
:1032A00033D00E2E3AF0E0E830D091505040E69501
:1032B000001CCAF729D0FE2F27D0660F771F881F62
:1032C000BB1F261737074807AB07B0E809F0BB0B51
:1032D000802DBF01FF2793585F4F2AF09E3F510575
:1032E00068F08DC0D7C05F3FECF3983EDCF3869565
:1032F00077956795B795F7959F5FC9F7880F911DEB
:103300009695879597F90895E1E0660F771F881FD6
:10331000BB1F621773078407BA0720F0621B730B89
:10332000840BBA0BEE1F88F7E095089598D088F0CB
:103330009F5790F0B92F9927B751A0F0D1F0660FA1
:10334000771F881F991F1AF0BA95C9F712C0B130BC
:1033500081F09FD0B1E008959CC0672F782F882717
:10336000B85F39F0B93FCCF3869577956795B395FB
:10337000D9F73EF490958095709561957F4F8F4F6A
:103380009F4F0895E89409C097FB3EF4909580956F
:10339000709561957F4F8F4F9F4F9923A9F0F92F1B
:1033A00096E9BB279395F695879577956795B79599
:1033B000F111F8CFFAF4BB0F11F460FF1BC06F5F7F
:1033C0007F4F8F4F9F4F16C0882311F096E911C091
:1033D000772321F09EE8872F762F05C0662371F0B2
:1033E00096E8862F70E060E02AF09A95660F771FC6
:1033F000881FDAF7880F9695879597F9089597F9BA
:103400009F6780E870E060E008959FEF80EC08958A
:1034100000240A94161617061806090608950024B3
:103420000A9412161306140605060895092E03942D
:10343000000C11F4882352F0BB0F40F4BF2B11F4A1
:1034400060FF04C06F5F7F4F8F4F9F4F089557FD00
:103450009058440F551F59F05F3F71F04795880F02
:1034600097FB991F61F09F3F79F087950895121699
:1034700013061406551FF2CF4695F1DF08C0161645
:1034800017061806991FF1CF8695710561050894F6
:103490000895E894BB2766277727CB0197F908950D
:1034A0000BD0C4CFB5DF28F0BADF18F0952309F0B0
:1034B000A6CFABCF1124EECFCADFA0F3959FD1F3F7
:1034C000950F50E0551F629FF001729FBB27F00DD2
:1034D000B11D639FAA27F00DB11DAA1F649F662727
:1034E000B00DA11D661F829F2227B00DA11D621F76
:1034F000739FB00DA11D621F839FA00D611D221F30
:10350000749F3327A00D611D231F849F600D211D13
:10351000822F762F6A2F11249F5750408AF0E1F0B6
:1035200088234AF0EE0FFF1FBB1F661F771F881FFF
:1035300091505040A9F79E3F510570F060CFAACF3F
:103540005F3FECF3983EDCF3869577956795B795EA
:10355000F795E7959F5FC1F7FE2B880F911D969514
:10356000879597F90895AA1BBB1B51E107C0AA1FB5
:10357000BB1FA617B70710F0A61BB70B881F991F14
:103580005A95A9F780959095BC01CD01089597FBB8
:10359000072E16F4009407D077FD09D00E94B31AC5
:1035A00007FC05D03EF4909581959F4F0895709546
:1035B00061957F4F0895A1E21A2EAA1BBB1BFD0146
:1035C0000DC0AA1FBB1FEE1FFF1FA217B307E40702
:1035D000F50720F0A21BB30BE40BF50B661F771F5A
:1035E000881F991F1A9469F760957095809590953A
:1035F0009B01AC01BD01CF010895052E97FB1EF480
:1036000000940E94141B57FD07D00E94DB1A07FC90
:1036100003D04EF40C94141B509540953095219591
:103620003F4F4F4F5F4F08959095809570956195EE
:103630007F4F8F4F9F4F0895A29FB001B39FC0014E
:10364000A39F700D811D1124911DB29F700D811DCE
:103650001124911D08950E941C1BA59F900DB49FDD
:10366000900DA49F800D911D11240895B7FF0C9417
:103670002B1B0E942B1B821B930B0895DC0101C0A6
:103680006D9341505040E0F70895AEE0B0E0EBE4B8
:10369000FBE10C94F71D8C01CA014EE04C830983B9
:1036A0001A8377FF02C060E070E8615071096D8392
:1036B0007E83A901BC01CE0101960E94711B4D8140
:1036C0005E8157FD0AC02F813885421753070CF4DD
:1036D0009A01F801E20FF31F10822E96E4E00C9499
:1036E000101EACE0B0E0E7E7FBE10C94E91D7C01C3
:1036F0006B018A01FC0116821782838181FFBDC1A3
:10370000CE0101964C01F7019381F60193FD85915D
:1037100093FF81916F01882309F4ABC1853239F49D
:1037200093FD859193FF81916F01853229F4B70153
:1037300090E00E94591DE7CF512C312C20E020321F
:10374000A0F48B3269F030F4803259F0833269F49E
:1037500020612CC08D3239F0803339F4216026C0CD
:103760002260246023C0286021C027FD27C030EDDF
:10377000380F3A3078F426FF06C0FAE05F9E300D2D
:103780001124532E13C08AE0389E300D1124332E9D
:1037900020620CC08E3221F426FD6BC1206406C06D
:1037A0008C3611F4206802C0883641F4F60193FD8E
:1037B000859193FF81916F018111C1CF982F9F7DDA
:1037C0009554933028F40C5F1F4FFFE3F9830DC02D
:1037D000833631F0833771F0833509F05BC022C046
:1037E000F801808189830E5F1F4F44244394512C3C
:1037F000540115C03801F2E06F0E711CF801A08071
:10380000B18026FF03C0652D70E002C06FEF7FEF2F
:10381000C5012C870E944E1D2C0183012C852F771A
:10382000222E17C03801F2E06F0E711CF801A08043
:10383000B18026FF03C0652D70E002C06FEF7FEFFF
:10384000C5012C870E94431D2C012C852068222E47
:10385000830123FC1BC0832D90E048165906B0F469
:10386000B70180E290E00E94591D3A94F4CFF5012F
:1038700027FC859127FE81915F01B70190E00E94AE
:10388000591D31103A94F1E04F1A51084114510476
:1038900071F7E5C0843611F0893639F5F80127FF54
:1038A00007C060817181828193810C5F1F4F08C0C6
:1038B00060817181882777FD8095982F0E5F1F4F5B
:1038C0002F76B22E97FF09C09095809570956195DF
:1038D0007F4F8F4F9F4F2068B22E2AE030E0A40127
:1038E0000E948B1DA82EA81844C0853729F42F7E6E
:1038F000B22E2AE030E025C0F22FF97FBF2E8F369E
:10390000C1F018F4883579F0B4C0803719F08837E1
:1039100021F0AFC02F2F2061B22EB4FE0DC08B2D31
:103920008460B82E09C024FF0AC09F2F9660B92E6C
:1039300006C028E030E005C020E130E002C020E110
:1039400032E0F801B7FE07C0608171818281938106
:103950000C5F1F4F06C06081718180E090E00E5FB8
:103960001F4FA4010E948B1DA82EA818FB2DFF77C6
:10397000BF2EB6FE0BC02B2D2E7FA51450F4B4FE27
:103980000AC0B2FC08C02B2D2E7E05C07A2C2B2D30
:1039900003C07A2C01C0752C24FF0DC0FE01EA0D76
:1039A000F11D8081803311F4297E09C022FF06C0F9
:1039B0007394739404C0822F867809F0739423FD66
:1039C00013C020FF06C05A2C731418F4530C571858
:1039D000732C731468F4B70180E290E02C870E9486
:1039E000591D73942C85F5CF731410F4371801C04A
:1039F000312C24FF12C0B70180E390E02C870E9495
:103A0000591D2C8522FF17C021FF03C088E590E0D7
:103A100002C088E790E0B7010CC0822F867859F089
:103A200021FD02C080E201C08BE227FD8DE2B701DB
:103A300090E00E94591DA51438F4B70180E390E08E
:103A40000E94591D5A94F7CFAA94F401EA0DF11D72
:103A50008081B70190E00E94591DA110F5CF33205D
:103A600009F451CEB70180E290E00E94591D3A94CA
:103A7000F6CFF7018681978102C08FEF9FEF2C96DA
:103A8000E2E10C94021EFC010590615070400110AF
:103A9000D8F7809590958E0F9F1F0895FC01615077
:103AA000704001900110D8F7809590958E0F9F1F60
:103AB00008950F931F93CF93DF93182F092FEB01D6
:103AC0008B8181FD03C08FEF9FEF20C082FF10C06C
:103AD0004E815F812C813D81421753077CF4E88140
:103AE000F9819F012F5F3F4F28833983108306C0E0
:103AF000E885F985812F0995892B29F72E813F814A
:103B00002F5F3F4F2E833F83812F902FDF91CF91E7
:103B10001F910F910895FA01AA27283051F1203101
:103B200081F1E8946F936E7F6E5F7F4F8F4F9F4F51
:103B3000AF4FB1E03ED0B4E03CD0670F781F891F93
:103B40009A1FA11D680F791F8A1F911DA11D6A0F61
:103B5000711D811D911DA11D20D009F468943F9114
:103B60002AE0269F11243019305D3193DEF6CF0113
:103B70000895462F4770405D4193B3E00FD0C9F7D9
:103B8000F6CF462F4F70405D4A3318F0495D31FD46
:103B90004052419302D0A9F7EACFB4E0A695979599
:103BA000879577956795BA95C9F70097610571056F
:103BB00008959B01AC010A2E0694579547953795B9
:103BC0002795BA95C9F7620F731F841F951FA01D13
:103BD00008952F923F924F925F926F927F928F92B1
:103BE0009F92AF92BF92CF92DF92EF92FF920F938C
:103BF0001F93CF93DF93CDB7DEB7CA1BDB0BCDBFCF
:103C0000DEBF09942A88398848885F846E847D8461
:103C10008C849B84AA84B984C884DF80EE80FD8074
:103C20000C811B81AA81B981CE0FD11DCDBFDEBF12
:103C3000ED010895F894FFCF780001F0FF00000037
:103C40000101060D0F1400A526A5261400B926B9FA
:103C500026D200CD26CD26D2009F279F27DC0071DB
:103C6000287128DC004D294D294A756E202032200C
:103C70003230313500FFFFFFFFFFFFFFFFFFFFFF87
:103C8000FFFFFFFFFFFFFFFFFFFFFFFFFFFFFFFF44
:103C9000FFFFFFFFFFFFFFFFFFFFFFFFFFFFFFFF34
:103CA000FFFFFFFFFFFFFFFFFFFFFFFFFFFFFFFF24
:103CB000FFFFFFFFFFFFFFFFFFFFFFFFFFFFFFFF14
:103CC000FFFFFFFFFFFFFFFFFFFFFFFFFFFFFFFF04
:103CD000FFFFFFFFFFFFFFFFFFFFFFFFFFFFFFFFF4
:103CE000FFFFFFFFFFFFFFFFFFFFFFFFFFFFFFFFE4
:103CF000FFFFFFFFFFFFFFFFFFFFFFFFFFFFFFFFD4
:103D0000B31410F43B1801C0312C34FF12C0B701BA
:103D100080E390E03C870E94E51E3C8532FF17C09F
:103D200031FD03C088E790E002C088E590E0B7016C
:103D30000CC0832F867859F031FF02C08BE201C09E
:103D400080E237FD8DE2B70190E00E94E51EA514E8
:103D500038F4B70180E390E00E94E51E5A94F7CF53
:103D6000AA94F401EA0DF11D8081B70190E00E9450
:103D7000E51EA110F5CF332009F451CEB70180E242
:103D800090E00E94E51E3A94F6CFF7018681978174
:103D900002C08FEF9FEF2C96E2E10C94941FFC0180
:103DA0000590615070400110D8F7809590958E0F66
:103DB0009F1F0895FC016150704001900110D8F7D9
:103DC000809590958E0F9F1F08950F931F93CF930B
:103DD000DF93FB01238121FD03C08FEF9FEF28C0FC
:103DE00022FF16C04681578124813581421753072F
:103DF00044F4A081B1819D012F5F3F4F2083318327
:103E00008C93268137812F5F3F4F2683378310C0E5
:103E1000EB01092F182F0084F185E02D0995892BDE
:103E2000E1F68E819F8101968E839F83812F902F53
:103E3000DF91CF911F910F910895FA01AA272830A1
:103E400051F1203181F1E8946F936E7F6E5F7F4F67
:103E50008F4F9F4FAF4FB1E03ED0B4E03CD0670FE3
:103E6000781F891F9A1FA11D680F791F8A1F911D36
:103E7000A11D6A0F711D811D911DA11D20D009F486
:103E800068943F912AE0269F11243019305D3193C8
:103E9000DEF6CF010895462F4770405D4193B3E0B1
:103EA0000FD0C9F7F6CF462F4F70405D4A3318F058
:103EB000495D31FD4052419302D0A9F7EACFB4E009
:103EC000A6959795879577956795BA95C9F70097C1
:103ED0006105710508959B01AC010A2E0694579562
:103EE000479537952795BA95C9F7620F731F841FB9
:103EF000951FA01D08952F923F924F925F926F924F
:103F00007F928F929F92AF92BF92CF92DF92EF9269
:103F1000FF920F931F93CF93DF93CDB7DEB7CA1BEA
:103F2000DB0BCDBFDEBF09942A88398848885F84BF
:103F30006E847D848C849B84AA84B984C884DF8049
:103F4000EE80FD800C811B81AA81B981CE0FD11D2D
:103F5000CDBFDEBFED010895F894FFCF780001F0EA
:103F6000FF0000000101060D0F1400A626A626146E
:103F700000BA26BA26D200CE26CE26D200A027A08E
:103F800027800272287228DC00F22AF22A4E6F760D
:103F9000202033203230313600FFFFFFFFFFFFFFCC
:103FA000FFFFFFFFFFFFFFFFFFFFFFFFFFFFFFFF21
:103FB000FFFFFFFFFFFFFFFFFFFFFFFFFFFFFFFF11
:103FC000FFFFFFFFFFFFFFFFFFFFFFFFFFFFFFFF01
:103FD000FFFFFFFFFFFFFFFFFFFFFFFFFFFFFFFFF1
:108000000C94BC400C94D9400C94D9400C94D940A9
:108010000C94D9400C94D9400C94D9400C94D9407C
:108020000C94D9400C94D9400C94D9400C94D9406C
:108030000C94D9400C94D9400C94D9400C94D9405C
:108040000C94D9400C94D9400C94D9400C94D9404C
:108050000C94D9400C94D9400C94D9400C94D9403C
:108060000C94D9400C94D9400C94D9400C94D9402C
:108070000C94D9400C94D9400C94D9400C94D9401C
:108080000C94D9400C94D9400C94D9400C94D9400C
:108090000C94D9400C94D9400C94D9400C94D940FC
:1080A0000C94D9400C94D9400C94D9400C94D940EC
:1080B0000C94D9400C94D9400C94D9400C94D940DC
:1080C0000C94D9400C94D9400C94D9400C94D940CC
:1080D0000C94D9400C94D9400C94D9400C94D940BC
:1080E0000C94D9400C94D9400C94D9400C94D940AC
:1080F0000C94D9400C94D9400C94D9400C94D9409C
:108100000C94D9400C94D9400C94D9400C94D9408B
:108110000C94D9400C94D9400C94D9400C94D9407B
:108120000C94D9400C94D9400C94D9400C94D9406B
:108130000C94D9400C94D9400C94D9400C94D9405B
:108140000C94D9400C94D9400C94D9400C94D9404B
:108150000C94D9400C94D9400C94D9400C94D9403B
:108160000C94D9400C94D9400C94D9400C94D9402B
:108170000C94D9400C94D94011241FBECFEFCDBF31
:10818000DFE2DEBF10E2A5E0B0E2E0EAFEE802C016
:1081900005900D92AE31B107D9F722E2AEE1B0E21F
:1081A00001C01D92A83EB207E1F70E9490410C94D5
:1081B0004E470C9400403BB78BBFFB0186913BBF01
:1081C00008953BB78BBFFB01879196913BBF089504
:1081D00042E097C041E095C08093C001882780931A
:1081E000C1018093C20147E07CD0CB010895809308
:1081F000C40148E076C08091D00108953BB748E1C2
:108200000C9486413BB74AE10C9486413BB78827E2
:1082100099278BBF40E20C9486413BB78BBFCB01C3
:1082200042E20C9486413BB70B0143E20C94864139
:10823000EE27FF2719BEDC0143E24093CA0150E854
:108240002DE90D901D9020933400E89532965A95B3
:10825000C1F7112408953BB76BBFFA0119BEDC01C9
:1082600040E04093CA0150E0879197918D939D9390
:108270005A95D1F73BBF08953BB78BBFCB0144E282
:108280000C9486413BB78BBFCB0145E20C948641F1
:108290003BB746E20C9486413BB78BBFCB014AE229
:1082A0000C9486413BB78BBFCB014CE20C948641CA
:1082B0003BB78BBFCB014DE20C94864148E311C024
:1082C00049E30FC028ED2093340021E02093CC0136
:1082D00008952091CF0127FDFCCF22272093CA01CA
:1082E00008954093CA0128ED31E020933400309383
:1082F000CB016091C4017091C5018091C60199279D
:108300000895FC014093CA0184910895FC014093B3
:10831000CA012DE920933400E89511243BBF08954C
:108320000E9484460E94EA4620E030E448E350E0A0
:1083300060E071EE80E090E00E941046A89560E059
:1083400070E0CB010E94E14080930B2090930C20C1
:1083500040910020509101206091022070910320F3
:108360004A3C5C4A6C4C7A4A21F0019611F00C941C
:1083700000000E940E43E12C00E02BE04DE050E2B3
:108380006AE78EEF9FEF0E94A644C4E088EEC82EF5
:1083900083E0D82EE12CF12C8091072090910820C9
:1083A000A0910920B0910A200197A109B1098093F9
:1083B000072090930820A0930920B0930A20892BCE
:1083C0008A2B8B2B61F4C0934706C0930706C0929B
:1083D0000720D0920820E0920920F0920A2080E045
:1083E0000E942543A895D8CF8091CF0187FDFCCF6F
:1083F0000895CF93DF9300D0CDB7DEB789839A83FA
:108400000E94F441A0ECB1E089818C939A819F7124
:1084100011969C93119712961C92129786E01A96C9
:108420008C931A97EBECF1E021E030E088ED90E0DE
:1084300084BF208314968C910F900F90DF91CF9181
:108440000895CF92DF92FF920F931F93CF93DF9304
:108450006C018A01F62EEB012C2F2F19822F90E050
:108460008017910730F48C0D9D1D0E94F94189936E
:10847000F3CFDF91CF911F910F91FF90DF90CF90BD
:1084800008952F923F924F925F926F927F928F92B8
:108490009F92AF92BF92CF92DF92EF92FF920F9393
:1084A0001F93CF93DF93CDB7DEB7A197CDBFDEBFCC
:1084B0006B018A019C0195E0369527959A95E1F725
:1084C000522E582F40EE249F500D1124252F36E3B5
:1084D000432E48EDA42EB12C88248394912C6BEC70
:1084E000662E7724739473E3372EE5E32E2E011561
:1084F000110509F453C080E2589E7001112440E236
:1085000050E0BE016F5F7F4FC70129A30E94214247
:108510000E94F4418091CF0129A181FF06C04092C1
:10852000CA01A501F30144BF8082C6016C0120325B
:1085300088F40115110571F00196E1E0F0E0EC0F0F
:10854000FD1FE20FF11DD6013C913083015011094E
:108550002F5FECCF0E94F4413092CA011092C1010A
:108560001092C201FE01319680E08093C00191918A
:108570009093C4018F5F8032C1F70E94F441E09272
:10858000C001F092C1011092C2012092CA01A5015E
:10859000F30144BF8082539420E0A9CFA196CDBFC0
:1085A000DEBFDF91CF911F910F91FF90EF90DF9091
:1085B000CF90BF90AF909F908F907F906F905F9083
:1085C0004F903F902F900895CF92DF92EF92FF92BD
:1085D000CF93DF931F92CDB7DEB76B017C01CA0149
:1085E00029830E9418412981C701B601222319F06D
:1085F0000E94424102C00E943C410F90DF91CF9106
:10860000FF90EF90DF90CF900C946941611102C010
:108610000C94094608950895892F089581E690E005
:108620000E94F941109205208093062080E690E098
:108630000E94F9412091052030910620280F311D1C
:10864000209305203093062008954F925F926F92F9
:108650007F928F929F92AF92BF92CF92DF92EF92D2
:10866000FF920F931F93CF93DF93CDB7DEB7CC5D0F
:10867000D109CDBFDEBFE82E0E946145882309F4F1
:10868000F6C06E2DCE0101960E9499448E818C30E9
:1086900009F4CAC0D8F48130F9F08A3009F0E7C093
:1086A00080910520909106200E940B4380931E200C
:1086B00080910520909106200E940C4380931F20FA
:1086C00000E022E04EE150E26BE0BEC0833551F0A5
:1086D000883709F4BEC0CBC000E020E040E050E0A5
:1086E00062E0B2C0898157EFF52EF80EAF2CB12CA5
:1086F000FE01EA0DFB1D50840E2D10E02AEA5212F5
:1087000019C0F801EE0FFF1FEE5DFE4D10821182C1
:10871000F801EF5DFF4D1082F801E05EFF4D108221
:10872000902F882740E051E06FEF70E08E5D9F4D05
:108730000E944747C8018F5D9F4D3C01FC0140806E
:10874000E42DF0E0E75EFF4DC080E7E0F0E0EC0FE5
:10875000FD1FEA0DFB1D80819801205E3F4D490100
:10876000F9019081D12C98130FC05C2D4427400F44
:10877000511F4E5D5F4D00E02F2D64E58A819B8186
:108780000E94A644F40141C0F9018083902E882400
:10879000C601880D991D9C012E5D3F4D6901A50103
:1087A000BE01695F7F4FC9010E943E4733E0431617
:1087B00019F08CEC58122BC0F401EE5DFF4D4F0107
:1087C000000F111F98012E5D3E4D5901F901608186
:1087D000718180E090E021E0A4010E94E44200E089
:1087E0002F2DA60164E58A819B810E94A644F50194
:1087F0008081918193958083918340E051E06FEF78
:1088000070E0C4010E944747F301108230C000E0CD
:108810002F2DA60164E58A819B810E94A644F30165
:1088200080818F5F808323C042E050E0BE01695F9A
:108830007F4F80E690E00E9441420E940E4300E09C
:1088400020E040E050E06DE08A819B810E94A644D8
:108850000EC08F818A3C41F41092002010920120BA
:1088600010920220109203200E94F846FFCFC452BB
:10887000DF4FCDBFDEBFDF91CF911F910F91FF90F2
:10888000EF90DF90CF90BF90AF909F908F907F90B0
:108890006F905F904F90089550E090912421813720
:1088A000C1F4E6EEE49F9001E59F300D1124F9013B
:1088B000E90FF11DEB5DFE4D808342E0490F4093CF
:1088C00024219F5F290F311DF901EB5DFE4D91E3DE
:1088D0001AC08136D1F4E6EEE49F9001E59F300D99
:1088E0001124F901E90FF11DEB5DFE4D41E74083D5
:1088F00042E0490F409324219F5F290F311DF90168
:10890000EB5DFE4D92E390830FC021E0290F209391
:10891000242126EE249FF001259FF00D1124E90F5C
:10892000F11DEB5DFE4D8083FB019081890F8083FB
:1089300008952CED629FF0011124E55FFD4D2CEDB3
:10894000DC0101900D922A95E1F708959F92AF9274
:10895000BF92CF92DF92EF92FF920F931F93CF932C
:10896000DF9300D0CDB7DEB76C01962EB42EF22E79
:10897000A02E198281E0809324210E2D10E086EE36
:10898000E89EF0011124EB5DFE4D81E680834E2DC3
:10899000BE016F5F7F4F87E0820F5A830E944C4475
:1089A00080910520909106200E940C434E2DBE011F
:1089B0006F5F7F4F0E944C4480910520909106206C
:1089C0000E940B434E2DBE016F5F7F4F0E944C44AF
:1089D000C6010E940C434E2DBE016F5F7F4F0E9467
:1089E0004C44C6010E940B434E2DBE016F5F7F4F6A
:1089F0000E944C444E2DBE016F5F7F4F892D0E9417
:108A00004C449B2CCB2C5A81D52E8C2D89198F153B
:108A100050F44E2DBE016F5F7F4FF60181916F01C3
:108A20000E944C44F2CF89814E2DBE016F5F7F4F73
:108A300081950E944C44F801E951FD4DA082D12C52
:108A400086EE809F5001819FB00C112480912421DB
:108A5000D81660F4F501ED0DF11DEB5DFE4D40E023
:108A60006E2D80810E940643D394F0CFF801E95126
:108A7000FD4D80818130B9F4D12C86EE809F50016C
:108A8000819FB00C112480912421D81660F4F50147
:108A9000ED0DF11DEB5DFE4D40E06E2D80810E94DD
:108AA0000643D394F0CF0F900F90DF91CF911F9199
:108AB0000F91FF90EF90DF90CF90BF90AF909F907D
:108AC0000895CF93DF931F92CDB7DEB7811157C0C2
:108AD000CE0101960E94FD45813009F050C0998178
:108AE000913669F410920B22109210221092E32218
:108AF0001092E4221092E5221092E62240C02091CA
:108B0000E5222130E1F12091E622213081F49133F8
:108B100021F41092E62291E70FC0923321F41092D3
:108B2000E62291E609C081E08093E52228C09137D2
:108B300019F48093E62223C0E091E422EF5FE093F2
:108B4000E4222091E322290F2093E322E13019F45B
:108B500090930B2214C0E23029F410920C229093CF
:108B60000D220DC0E33069F420910C2230910D22CA
:108B7000A901490F511D40930C2250930D2280E012
:108B800038C0E43029F410920E2290930F22F7CFD0
:108B9000E530E1F420910E2230910F22A901490F16
:108BA000511DCA0140930E2250930F22209105209F
:108BB000309106204217530711F3019601F381E02B
:108BC0008093E52284E080934606D9CFE63019F4FD
:108BD00090931022D4CF30910B22E31728F4F0E0C9
:108BE000E65FFD4D9083CBCF21119DCF91E0909317
:108BF000E5220F90DF91CF9108952091A10A27FFE0
:108C000006C02091A00AFC01208381E0089580E045
:108C100008959091A10A95FFFCCF8093A00A089532
:108C2000CF92DF92EF92FF92CF93DF9369017A01A7
:108C3000E0E8F6E028E0218324E02283E0E7F0E0AA
:108C400035813F7E3583C0EADAE023E02D839B0146
:108C5000AC0184E0220F331F441F551F8A95D1F7C2
:108C6000C701B6010E94FD46DA01C9010197A109B9
:108C7000B1098E83892F9A2FAB2FBB278F838C81CD
:108C800080618C838C8188608C83DF91CF91FF9091
:108C9000EF90DF90CF9008950F93CF93DF931F92C3
:108CA000CDB7DEB72FB72983F8941BBEFC0108EDC2
:108CB00004BF608389818FBF0F90DF91CF910F91A7
:108CC00008958BE2809352008091500088608093D9
:108CD00050008091510083FFFCCF60914000687F7D
:108CE000636080E490E00E944C4680915000887E52
:108CF0008093500060E081E490E00E944C4661E087
:108D000082E490E00C944C461F93CF93DF93E8E706
:108D1000F0E08081809304208FE380830E94EF46FF
:108D2000E0E0F6E084E4818384E0868310E4158348
:108D3000A0E2B6E098E011969C93119715969C934B
:108D4000A0E4B6E097ED11969C93119793ED1596DC
:108D50009C93159716968C93C0E6D6E095ED998373
:108D600095E99D831E83809381068583E0E7F0E08B
:108D70008DE1808387E0818382838FE7838384838F
:108D800085838683E0ECF1E0848582608487848536
:108D90008460848788ED84BF81E0809396000E9480
:108DA00061462FEF8FE191E0215080409040E1F744
:108DB00000C000001D837894DF91CF911F9108952A
:108DC000836098ED94BF809380008091820080FD45
:108DD000FCCF089580E20E94E046A8950895E0E85F
:108DE000F0E080818C7F816098ED94BF808308954E
:108DF00080E10E94E046A8950895052E97FB1EF499
:108E000000940E94144757FD07D00E941C4707FC9E
:108E100003D04EF40C94144750954095309521950D
:108E20003F4F4F4F5F4F0895909580957095619596
:108E30007F4F8F4F9F4F0895A1E21A2EAA1BBB1B95
:108E4000FD010DC0AA1FBB1FEE1FFF1FA217B30716
:108E5000E407F50720F0A21BB30BE40BF50B661F2C
:108E6000771F881F991F1A9469F7609570958095F0
:108E700090959B01AC01BD01CF010895FB01DC0180
:108E800002C001900D9241505040D8F70895DC0186
:108E900001C06D9341505040E0F70895F894FFCF22
:108EA000F0FFE8030000AACC4E6F7620203220327B
:108EB00030313600004080C000FFFFFFFFFFFFFFA2
:108EC000FFFFFFFFFFFFFFFFFFFFFFFFFFFFFFFFB2
:108ED000FFFFFFFFFFFFFFFFFFFFFFFFFFFFFFFFA2
:108EE000FFFFFFFFFFFFFFFFFFFFFFFFFFFFFFFF92
:108EF000FFFFFFFFFFFFFFFFFFFFFFFFFFFFFFFF82
:108F0000FFFFFFFFFFFFFFFFFFFFFFFFFFFFFFFF71
:108F1000FFFFFFFFFFFFFFFFFFFFFFFFFFFFFFFF61
:108F2000FFFFFFFFFFFFFFFFFFFFFFFFFFFFFFFF51
:108F3000FFFFFFFFFFFFFFFFFFFFFFFFFFFFFFFF41
:108F4000FFFFFFFFFFFFFFFFFFFFFFFFFFFFFFFF31
:108F5000FFFFFFFFFFFFFFFFFFFFFFFFFFFFFFFF21
:108F6000FFFFFFFFFFFFFFFFFFFFFFFFFFFFFFFF11
:108F7000FFFFFFFFFFFFFFFFFFFFFFFFFFFFFFFF01
:108F8000FFFFFFFFFFFFFFFFFFFFFFFFFFFFFFFFF1
:108F9000FFFFFFFFFFFFFFFFFFFFFFFFFFFFFFFFE1
:108FA000FFFFFFFFFFFFFFFFFFFFFFFFFFFFFFFFD1
:108FB000FFFFFFFFFFFFFFFFFFFFFFFFFFFFFFFFC1
:108FC000FFFFFFFFFFFFFFFFFFFFFFFFFFFFFFFFB1
:108FD000FFFFFFFFFFFFFFFFFFFFFFFFFFFFFFFFA1
:108FE000FFFFFFFFFFFFFFFFFFFFFFFFFFFFFFFF91
:108FF000FFFFFFFFFFFFFFFFFFFFFFFFFFFFFFFF81
:00000001FF
